:400000000080002011000000150300001503000008B5044B1A6803F53F5302331A6000F081F900BFFA46004010B5054C237833B9044B13B10448AFF300800123237010BDCD
:400040008881FF1F0000000038100000084B10B51BB108490848AFF300800848036803B910BD074B002BFBD0BDE81040184700BF000000008C81FF1F38100000C880FF1FF2
:400080000000000008B562B600F040FB00F085FB00F0FEFB00F0A4FA00F0E8F90028FBD100F048FC0546012025B900F043FC044618B1284600F080FCEAE7022000F03AFCE1
:4000C0000028E5D0012000F077FCFA2000F05AFD204600F071FCFA2000F054FDD8E70000052807D8044B53F8202018441178037E0B431370704700BF3C100000052808D875
:40010000044B53F820201844017E137823EA0103137070473C100000F8B572B6684A694D1378002443F004031370062606FB045300215A8CD3F81E00013400F075FF082CFE
:40014000F4D16148614D002450F8041F04F1105303F1280221F0FF062933C9B20B4452005B0002329A4206D012F8027C12F801EC07F806E0F5E7A8420C44E5D1544B4FF47D
:4001800040721A8040F2031223F8282C514A03F53143E6331A60504A504C1378504F43F002031370137C192643F0020313742378A2F5863243F040032370413A13780025DD
:4001C00043F010031370474B03CBC2F8300EC2F8341E03CBC2F8500DC2F8541D03CBC2F8641DC2F8600DA03A1378032143F0080313703D4B61221A70A3F5F06301221A800B
:4002000018229A70022283F8802208224FF040231A7083F80012354B35491B78DBB20B70344B1A8041F2512223F8022C3B784FF4F07003F0010343EA450500F0D1FC013EF5
:4002400005F003053AD0032DF0D12B4B4FF480721A802A4907221A70482000220A70887002211A7003F8031C254926480B7843F001030B701C4B8121197003F5F723012181
:4002800004331970204B1B78DBB203F007051B09057043701D4B1020187083F87326202283F8CE281A4D83F85E19442203F279631A7094E80F0007C52B80F8BDFEE700BF4C
:4002C000E84600403C100000FCFFFF474C000048725800400404048403500140A043004025420040200300480048004008010049A14600402242004004400040064000405D
:40030000A24300406E580040CF010049FD510040B043004008B500F05BFE03680C2B00D1FEE7FEE780B51148114B0025C0B1A3F1100192C922460439161BB74204D051F809
:40034000046F42F8046BF7E7114653F8046C8C1AA64202D041F8045BF9E701381033E5E700F03CFEFFF78EFEFEE700BF0100000024110000104A114B10B41A60104A114C20
:400380001368114843F4007313600023032B98BF54F823204FEA830188BF0C4A0133302B4250F3D10A4B1A780A4B1A700A4B064A10BC1A60FFF7B0BE0004FA050CED00E0E5
:4003C00014ED00E0000000000080FF1F15030000BC760040C080FF1F08ED00E010B500F007FC0446144A137843F02003137000F0BDFB00F0EDFA00F043FB104A2046137805
:4004000043F01003137012F8103C43F0100302F8103C02F5A5521532137843F00103137000F0EAFB064B01221A60064A137843F08003137010BD00BF9A640040BB430040B8
:4004400000E100E079640040074910B501240130C0B2032807D0C20800F007038A5C04FA03F31342F3D010BDCC80FF1F024B187800F00100704700BFB481FF1F0A4B30B402
:40048000195C03EB80020F29926808BF07211C18092503EB810315705A69E47813782343137030BCFFF71CBE8C100000F8B506460A4C255C2318DF78FFF720FE0F2D08BF79
:4004C000072504EB85056A6904EB8604137823EA07031370A36808221A70F8BD8C10000008B50020FFF7E2FF0120FFF7DFFFBDE808400220FFF7DABF10B50E4A0E49137890
:400500006C3A03F0FC0382F86C300C4B1B781B0221F8103012781343DB4321F81030FFF7C5FF002000F0C6FA054A137843F00103137010BD79640040AA81FF1F1D64004044
:4005400070580040024B187040081874704700BF2864004070B50446094B0A4E034493F8345033185878354400F0A4FA2A79064B1A70064B185DBDE87040FFF7E3BF00BF05
:400580008C100000CC80FF1F5C640040B081FF1F38B50546094CFFF7DDFF2378084A43F0010323701378284603F0FE031370FFF765FF237843F00203237038BD796400408E
:4005C00070580040044B00221A70044A107081221A70FFF7DDBF00BFB481FF1FB381FF1F38B50B4D0B4C00232B70FF2323702078FFF72AFF20702378022B08D82B7843F033
:4006000001032B702078BDE83840FFF7C1BF38BDB481FF1FB381FF1F044B01281A780CBF02F0EF0242F010021A7070477964004038B54FF6FF75FFF753FF0220FFF7ECFF0B
:4006400000F0D6FA2B4A0724137843F003031370537843F00303537000F0CEFA264B4FF434421A801D8483F8604000F0C1FA234A137843F003031370537843F003035370AE
:4006800000F0BAFA1E4AFF23157082F8203002F8203C537082F8313082F8213003F1E023012281331A601749002000F081FA2146002000F08BFA00F056FA0320FFF710FD69
:4006C0000420FFF70DFD0520FFF70AFD0E4A137843F00403137000F0B3F900F009FA002000F01CFA042000F027FABDE83840002000F0E0B99A6400402A6400409C64004018
:400700002C640040610900007964004010B5074C23781BB9FFF78CFF01232370FFF75EFE00F042F9024B0122DA7110BDA481FF1FCC80FF1F0A4B0B491A5C0B4B10B533F88C
:4007400010300A4C21F8103000212154084C215408498C5C08498C54084A22F8103010BDC0100000C081FF1FAA81FF1FB981FF1FBC81FF1FD480FF1FA581FF1FC681FF1F02
:4007800010B50446FFF71EFFFFF770FE0028FBD12046BDE81040FFF7CDBF08B50020FFF7EFFF0120FFF7ECFFBDE808400220FFF7E7BF00002DE9F04104462D4B2D4A1B5C7D
:4007C0001344DE782C4A2D4B32F8102033F81010B6B20A4402EB41029708BDB223F8105000F0E0F8264830F81420AA4203D8AD1AADB2012316E0551BADB2142D11D9DFF8E0
:400800008480002718F80420042A05D92046FFF791FF08F8047002E0013208F804203B4617E00023AE4202D2132D12D883B9DFF85CE01EF8041041EA02218A1A3A44110A27
:400840000EF804200F4A20F814100021115500E00123AE420C4A07D233B1FF2D01D9FF2303E01555BDE8F08100231355BDE8F081C0100000D480FF1FAA81FF1FC681FF1F0F
:40088000C081FF1FB681FF1FBC81FF1FB981FF1F70B5074E00240125327805FA04F31342E0B201D0FFF786FF0134032CF4D170BDCC80FF1FF0B500F0070201239340184A83
:4008C000184C155C184AC6085119575DA25DDBB2DFF85CC0134291F806E01CF80000497A09D0C1EB0E01884214DA22EA0302A2550E4A57550EE0714488420C4809DD415D1E
:40090000012998BF1A4301F1FF3198BFA255415500E04755A25D134214BF01200020F0BDC0100000CC81FF1FD480FF1FA581FF1FBC81FF1F094B70B51C5C1844C578002646
:400940002544EDB22046FFF7B5FF01340028E4B218BF0126A542F5D8304670BDC310000038B50C4D0C4C2878FFF7C6FD23781B060BD42878FFF768FD28702B78022B04D873
:400980002878BDE83840FFF703BE237803F0FE03237038BDB381FF1FB481FF1FFFF712BEFFF764BD00F006BA00F0BABA0220FFF733BE0120FFF730BE044A4000137800F0FF
:4009C000020003F0FD0303431370704720510040044A137843F002031370137C43F0020313747047A74300400F4901280B7803F0FC0200F0030343EA02030B70A1F59051FF
:400A0000A1F10F01094A05D1094B1B78DBB20B70084B04E0084B1B78DBB20B70074B1B78DBB21370704700BF41580040334600401101004915010049AF010049B701004926
:400A400008B50020FFF7D0FF0C4B1A7842F020021A701A7802F0FB021A701A7842F008021A7093F88E2202F0E70283F88E2293F88E2242F0100283F88E2208BD4158004021
:400A8000044A137843F008031370137C43F0080313747047A8430040054B00F002001A7802F0FD021A701A7810431870704700BF2C580040014B1870704700BF835B004008
:400AC000084B094A1B78127803F00C035B08520748BF013303F1924393F83831034ADBB2137070472C5800402D5800400B46004008B5094B142200201A7058705A7842F092
:400B000004025A705A7842F002025A70FFF7C4FFBDE80840FFF7D4BF2C580040054B00F004001A7802F0FB021A701A7810431870FFF7C6BF2D580040054B00F00C001A7846
:400B400002F0F3021A701A7810431870FFF7B8BF2C58004010B50024E0B20134FFF7CEFA062CF9D110BDFFF7F5BF0000044A137843F001031370137C43F0010313747047EE
:400B8000A243004038B50446084DB4F5004F05D9286800F025F8A4F50044F6E7034B58686043BDE8384000F01BB800BF1481FF1F054A00F01F00126800F1100352F823000B
:400BC00042F82310704700BF08ED00E000F01F0000F16040490100F56440C9B2017070470230800803D000BF01380046FCD17047EFF3108072B6704780F31088704700BFF6
:400C0000F7B50193194B041C1B7883422CD9184B184F1B6808261954396800230B54164B16491B6809681B5C8025CA54420000923968201C0B191A782A431A70FFF7AEFE9A
:400C4000FFF7AEFE0028FBD10D4B009A1B6801999B5A8B4204D23A6813191A78AA431A70013E6D08002EE3D1F7BDC046E180FF1FF080FF1FF480FF1F0481FF1F0881FF1F27
:400C8000EC80FF1F70B5194DFF232B54184B0F221B68041C1E5C174BFFF7B2FF164A174B10881B5D311C584300F07EF980B2802804D92B5D40085B082B55F8E7104BC0B28D
:400CC0001855104B1049800818556200002353520E490F4853520F490968095DFF2444540D4843540D4909688B5270BDDA81FF1FF480FF1F980D0000E480FF1FE91000008F
:400D0000E781FF1FEA81FF1FCE81FF1FDE81FF1FD781FF1F0481FF1FE481FF1FE880FF1F1E4BF7B51A681E4E43001E4C9A5A9F5B195BBD1AADB20191891A6940090429D567
:400D4000002D27D0019D1F53511B89B28DB22CB2002C01DA4D42ADB21349EDB20F5C79088D4217DA114C215C8D4206DD104D00260131FF082E54C9190BE08D420AD00C4D46
:400D80002F5C092F02D801372F5403E000272F54013921540249CA52F7BDC046EC80FF1FCE81FF1FDE81FF1FE781FF1FEA81FF1FD481FF1F70B5264B051C1B681C5CFFF7E0
:400DC000AFFF244B595D244B48005A5DC0B2234B824204D9185D904205D91A5503E01E5D864200D9185548080918C8B29208011C904200D2111C1A4AC8B2165D864200D2D3
:400E0000115518490968085D17490968095D4118013989B28D421AD11449185D0D6828551348155D0668355500680E680019355D06786D08AE4200D3057009680D48095DED
:400E4000006889080155FF2119550023135570BD0481FF1FEA81FF1FE781FF1FD781FF1FE481FF1FFC80FF1F0081FF1FF880FF1F1081FF1F0C81FF1FF7B50022224B1B783B
:400E800093423FD9214C2248267800230768B446191CDDB265450BD2FD5C954206D11D4DEE5C351C8E4200D20D1CE9B20133F0E7194B1B689954247800680194009000235C
:400EC000019CD8B2A0421AD2009CE05C904214D1124CE05C0F4D5D192F78B94206D901267F003743B0402F7080B2F3E7FF25071CAF4301D0E55400E0E0540133E0E7013241
:400F0000D2B2BBE7F7BDC046E080FF1FE280FF1F0481FF1FDA81FF1F0881FF1FE781FF1F38B5FFF746FD0024194B1A781D1CA2420AD9184B01221978D923201C93400134F3
:400F4000FFF75EFEE4B2EFE70023134A12789A420BD91249124A09681248C95C1268C908415CD1540133DBB2EFE7FFF71FFD00242B78A34208D90A4B201C1B68195D013440
:400F8000FFF780FEE4B2F3E7FFF776FF38BDC046E180FF1FE680FF1FE280FF1FF480FF1FF080FF1FC9100000002902D0B0FBF1F0704708B14FF0FF3000F008B80029F8D065
:400FC0000246B0FBF1F000FB11217047704700BF014B1868704700BF8481FF1F0E4B70B51E460E4C0025E41AA410A54204D056F8253098470135F8E700F07AF8084B094CEF
:401000001E46E41AA4100025A54204D056F8253098470135F8E770BDFC100000FC100000FC1000000411000003460244934202D003F8011BFAE77047000000001C5100402B
:401040001C5100401C510040FC510040CB5A00409B5A0040401004100110005100401000305100404000C0510040100000000140001000140140000800400140000A004CF2
:4010800001400002005001402000000001010140100400000E5000400C5000400A500040065200400E520040165200401E520040265200402E520040365200407E52004031
:4010C000000102000102010101010101010101020202020203030303030304040404040405050505050506060602020243000000F8B500BFF8BC08BC9E4670474D00000068
:4011000075030000F8B500BFF8BC08BC9E4670472900000028110000C880FF1FC000000068000000000000000000000007C8C8C8030303010101011414146464640A0A0AD6
:4011400003030300F2290500C081FF1FAA81FF1FB081FF1FCD80FF1FDA80FF1FC3100000C6100000C0100000D080FF1FDD80FF1FD780FF1F0000E02EC05D00001800000052
:4011800000366E010000000000000000000000000000000000000000000000000000000000000000EC1000000000000000000000000000000000000000000000000000008E
:4011C0000000000000000000000000000000000000000000000000000000000000000000000000002481FF1F0000000000000000000000000000000000000000000000002C
:4012000000000000000000000000000000000000000000000000000000000000000000000000000000000000000000000000000000000000000000000000000000000000AE
:40124000000000000000000000000000000000000000000000000000000000000000000000000000000000000000000000000000000000000000000000000000000000006E
:40128000000000000000000000000000000000000000000000000000000000000000000000000000000000000000000000000000000000000000000000000000000000002E
:4012C00000000000000000000000000000000000000000000000000000000000000000000000000000000000000000000000000000000000000000000000000000000000EE
:020000040003F7
:0200000480007A
:40000000015200400864004001030140010701403208014026090140450A01402D0B01404D0C01402D0D0140024001400341014002430140034501400346014003470140BE
:40004000014801400349014003500140015101400E5408FF0CFF0DFF1CFF1DFF2CFF2DFF8A1FE208E6040A010C041C0426022C012E023003340438203E0140564540460292
:400080004750482649FF4AFF4BFF4C024D204F05511058045A045F016040614062806480668084038502870189028E0191039401960299019B029C029E01AA02B503B603E7
:4000C000D217D804D904DB04DF0100040140051006010A220F021008162218021A021D101E081F2122103211380439104FA2560157406808695472028301900494029544E7
:4001000096229A20A310A604A720C0C5C285C4A2CC05CE06D230030204010702093D0B020D260E010F191401153F193B1B041C012110230125082701291F2B202D043303E3
:400140003401353C4004410249FF4AFF4BFF4C024D0C4EF85602580459045A045B045E085F01624863A168F06AF06CF06EF09A01A701AC01B001B101B601C001C106C6A0E4
:40018000C9FFCAFFCBFFCC03CD0CCEF4D804D904DA04DF01E248E3A1E8F0EAF0ECF0EEF00004014008040A220E08178018041B101C401D8020102228278029182A802B4008
:4001C0002F203004322038923904404445804F205620728073407B1090809504962297409918A340A628B640C005C245C480CA4FCC06CE0FD015D220DE0208190A040E1B4E
:4002000010111202180A1A013206341836013E544013410245024626480D58045A045F01610C62F0630C650C670C6840694C6A406B4C6C906D586F0C860189298C039202DF
:400240009403976098039B039E019F7BA152A401A602A803A978AB04AD7BB002B160B318B401B507BF15C042C103C506C702C811D608D804D904DA04DB0FDF01E10CE2F017
:40028000E30CE50CE70CE840E94CEA40EB4CEC90ED58EF0C010403020480051008010A260B400F881228188019101A841B021DA82054280229102B40302832403A204054BE
:4002C00045A848204D084F085008562057405A406002780184028608C0C5C25FC406CA0DCC0ECE04D077D608D808DE01E4023120CC108520A520E2108320E6201108871070
:40030000C4089320B504EE023B209320CE08A3207B20A320DE4000010C010E01000300000000000000001000000B5F000000000000020200000000000000000000000000D4
:40034000000000000000000000000000000000000000000000000000000000000000000000000000000000000000000000000000000000000000000000000000000000007D
:40038000000000000000000000000000000000000000000000000000000000000000000000000000000000000000000000000000000000000000000000000000000000003D
:4003C00000000000000000000000000000000000000000000000000000000000000000000000000000000000000000000000000000000000000000000000000000000000FD
:4004000000000000000000000000000000000000000000000000000000000000000000000000000000000000000000000000000000000000000000000000000000000000BC
:0200000490006A
:0400000000004005B7
:0200000490105A
:04000000BC90ACAF55
:0200000490303A
:0200000069395C
:0200000490402A
:4000000000000000000000000000000000000000000000000000000000000000000000000000000000000000000000000000000000000000000000000000000000000000C0
:400040000000000000000000000000000000000000000000000000000000000000000000000000000000000000000000000000000000000000000000000000000000000080
:400080000000000000000000000000000000000000000000000000000000000000000000000000000000000000000000000000000000000000000000000000000000000040
:4000C0000000000000000000000000000000000000000000000000000000000000000000000000000000000000000000000000000000000000000000000000000000000000
:0200000490501A
:0C00000000012E16106900012E1D79A2CF
:00000001FF