:400000000080002011000000D7000000D700000008B5044B1A6803F53F5302331A6000F05BF800BFFA46004010B5054C237833B9044B13B10448AFF300800123237010BD76
:400040006881FF1F000000000C10000008B5064B1BB106480649AFF300800648036813B1054B03B1984708BD000000000C1000006C81FF1F0881FF1F0000000008B562B6FC
:4000800000F038FB00F07DFB00F0F0FB00F09CFA00F0DEF90028FBD100F038FC0546012025B900F033FC044618B1284600F070FCEAE7022000F02AFC0028E5D0012000F038
:4000C00067FCFA2000F060FD204600F061FCFA2000F05AFDD8E7FEE708B51249124B4A1C1AD053F8106C53F80C0C53F8085C0022AA4200EB020403D0B45884500432F7E71A
:4001000053F8040C0022824203D00025A5500432F9E710330139E2E700F04AFFFFF7AEFFFEE700BF00000000F810000008B5114A114B1A609A6842F400729A600023032BCA
:4001400098BF0E4A4FEA830094BF52F823100C490C4A0133302B1150F1D10B4B19780B4B19700B4B1A6000F033F80A4B00221A6008BD00BF0004FA050CED00E000000000E5
:40018000D70000000080FF1FBC7600400481FF1F08ED00E00081FF1F052807D8044A52F8203010441978027E0A431A70704700BF10100000052808D8044A52F82030104432
:4001C000017E1A7822EA01021A70704710100000F8B572B6654B00241A7842F004021A70634B0021234418689A88063400F006FF302CF5D15F49002051F8043FDAB223F065
:40020000FF05430003F190435033144602333AB113F8026C13F8017C013AAF55D2B2F5E7554B20449942E7D1544B4FF44071198040F2031123F8281C03F5774391331978A4
:400240004F4D41F002011970197C4E4C41F0020119742B78192643F040032B704A4B197841F010011970494B03CB2060616003CB44F8E00C44F8DC1C03CB454B44F8CC1C02
:40028000C42144F8D00C1970A3F54543B93B1978032041F008011970612183F8DE14A3F2A2230121198018219970022183F8801208234FF040210B7081F80002354914461E
:4002C00008783549C0B20870A1F27F410B80334B41F251211980324B4FF4F0701A7802F0010242EA440400F03BFC013E04F003043AD0032CEFD12B4A4FF4807313802A4956
:4003000007231370482000230B7088700221137002F8031C92F89E13244841F0010182F89E13812182F8FC17214901220A7021490978C9B201F007040909047041701E4918
:400340001020087081F873361C4B202119706FF4157183F890201A4C44220B441A7095E80F0007C42380F8BDFEE700BFE84600402E100000FCFFFF474C00004872580040EB
:40038000A0430040F2510040C2430040F8020048DB08014008010049A1460040204200402542004004400040064000406E58004004000840CF010049FD510040CB5A0040C2
:4003C000B043004010B500F0D5FB154B04461A7842F020021A7000F0B5FB00F0E5FA00F03BFB104B20461A7842F010021A7013F8102C42F0100203F8102C03F5A55315337B
:400400001A7842F001021A7000F0B8FB064B01221A60064B1A7842F080021A7010BD00BF99640040BB43004000E100E07A6400400130C0B2032808D000F0070301229A4036
:400440000249C308CB5C1A42F2D070470C81FF1F024B187800F00100704700BF9481FF1F0B4B30B51A5C03EB80010F2A08BF07221C18896803EB820309255B690D70E4789C
:400480001A7822431A70BDE83040FFF785BE00BF60100000F8B50B4C0646255C2318DF78FFF788FE0F2D08BF072504EB85056B6904EB86041A7822EA07071F70A3680822FA
:4004C0001A70F8BD6010000008B50020FFF7E2FF0120FFF7DFFFBDE808400220FFF7DABF10B50E4B0E4C197801F0FC01197013F85D1C0C4B090223F8101024782143C94359
:4005000023F81010FFF7C6FF002000F0BFFA064B1A7842F001021A7010BD00BF7A6400400D6400408A81FF1F70580040024B187040081874704700BF2964004070B50A4B68
:400540000A4D034493F834602B1804463544587800F09CFA2A79064B1A70064B185DBDE87040FFF7E3BF00BF601000000C81FF1F5C6400409081FF1F38B50A4C0546FFF7A4
:40058000DDFF2378284643F001032370064B1A7802F0FE021A70FFF763FF237843F00203237038BD7A64004070580040044B00221A70044A107081221A70FFF7DDBF00BF0D
:4005C0009481FF1F9381FF1F38B50B4D0B4C00232B70FF2323702078FFF72AFF20702378022B08D82B7843F001032B702078BDE83840FFF7C1BF38BD9481FF1F9381FF1F9E
:40060000044B01281A780CBF02F0EF0242F010021A7070477A64004038B5FFF755FF0220FFF7EEFF00F0A6FA2C4B4FF6FF751A78072442F003021A705A7842F003025A7012
:4006400000F09CFA264B4FF434421A801D8483F85F4000F08FFA234B1A7842F003021A705A7842F003025A7000F088FA1E4AFF23157082F8203002F8203C537082F8313029
:4006800082F8213003F1E023012281331A601749002000F08DFA2146002000F097FA00F04EFA0320FFF778FD0420FFF775FD0520FFF772FD0E4B1A7842F004021A7000F0AF
:4006C000ABF900F001FA002000F014FA042000F01FFABDE83840002000F0D8B99A6400402A6400409C6400402C640040390900007A64004010B5074C23781BB9FFF78CFFDE
:4007000001232370FFF75EFE00F03AF9024B0122DA7110BD8481FF1F0C81FF1F0A4B0B491A5C0B4B10B533F810300A4C21F8103000212154084C215408498C5C08498C541A
:40074000084A22F8103010BD94100000A081FF1F8A81FF1F9981FF1F9C81FF1F1481FF1F8581FF1FA681FF1F10B50446FFF71EFFFFF76EFE0028FBD12046BDE81040FFF79C
:40078000CDBF08B50020FFF7EFFF0120FFF7ECFFBDE808400220FFF7E7BF00002DE9F0412A4B2B4A1B5C2B49134493F803802A4B31F8106033F810200446164406EB420678
:4007C000B608B5B223F8105000F0D8F8234B33F814201846954203D3AD1AADB2012312E0551BADB2142D0DD91D4F00263B5D042B04D92046FFF792FF3E5501E001333B5534
:40080000334614E00023454502D9132D0FD86BB914490F5D47EA0227BA1A1644320A20F814200F4A0E550021115500E0012345450D4A07D933B1FF2D01D9FF2303E015553E
:40084000BDE8F08100231355BDE8F081941000001481FF1F8A81FF1FA681FF1FA081FF1F9681FF1F9981FF1F9C81FF1F10B500240122A240054BE0B21B781A4201D0FFF78F
:400880008DFF0134032CF3D110BD00BF0C81FF1F00F0070301229A402DE9F041164B17491B5CD2B2CC1894F806C0677A144CCE5CC108655CDFF850802A4218F8000008D02D
:4008C000C7EB0C07B8420FDA25EA020565540D4809E06744B8420B4805DDC65C012E9CBF15436554013EC654635C1A420CBF00200120BDE8F08100BF941000001481FF1F00
:40090000AC81FF1F8581FF1F9C81FF1F094B70B51C5C1844C67800252644F6B22046FFF7B7FF01340028E4B218BF0125B442F5D3284670BD9810000038B50C4D0C4C28780A
:40094000FFF7CEFD23781B060BD42878FFF770FD28702B78022B04D82878BDE83840FFF70BBE237803F0FE03237038BD9381FF1F9481FF1FFFF71ABEFFF76ABD00F00ABA3D
:4009800000F0BEBA0220FFF73BBE0120FFF738BE044B40001A7800F0020002F0FD0202431A70704720510040044B1A7842F002021A701A7C42F002021A747047A74300409A
:4009C0000F4B00F003011A78012802F0FC0241EA02021A70A3F590530A4AA3F10E0305D109490978C9B21170084A04E008490978C9B21170074A1278D2B21A70704700BFC9
:400A000041580040324600401101004915010049AF010049B701004908B50020FFF7D0FF0C4B1A7842F020021A701A7802F0FB021A701A7842F008021A7093F88E2202F078
:400A4000E70283F88E2293F88E2242F0100283F88E2208BD41580040044B1A7842F008021A701A7C42F008021A747047A8430040054B00F002001A7802F0FD021A701A7850
:400A800002431A70704700BF2C580040014B1870704700BF835B0040084B094A1B78127803F00C035B08520748BF013303F1924393F83821034BD2B21A7070472C58004085
:400AC0002D5800400B46004008B5094B142200201A7058705A7842F004025A705A7842F002025A70FFF7C4FFBDE80840FFF7D4BF2C580040054B00F004001A7802F0FB0289
:400B00001A701A7802431A70FFF7C6BF2D580040054B00F00C001A7802F0F3021A701A7802431A70FFF7B8BF2C58004010B50024E0B20134FFF73EFB062CF9D110BDFFF70B
:400B4000F5BF0000044B1A7842F001021A701A7C42F001021A747047A2430040000000000230800800F0058000BF013800467FF4FCAF7047EFF3108072B6704780F310884E
:400B8000704700BFAFF3008010B50446B4F5004F064B05D91868FFF7E3FFA4F50044F5E758686043BDE81040FFF7DABF5481FF1F054B00F01F001B6800F1100253F822002A
:400BC00043F82210704700BF08ED00E000F01F0000F16040490100F56440C9B201707047F7B50193194B041C1B7883422CD9184B184F1B6808261954396800230B54164B8A
:400C000016491B6809681B5C8025CA54420000923968201C0B191A782A431A70FFF7AAFEFFF7AAFE0028FBD10D4B009A1B6801999B5A8B4204D23A6813191A78AA431A701B
:400C4000013E6D08002EE3D1F7BDC0462181FF1F3081FF1F3481FF1F4481FF1F4881FF1F2C81FF1F70B5194DFF232B54184B0F221B68041C1E5C174BFFF7B2FF164A174B85
:400C800010881B5D311C584300F07EF980B2802804D92B5D40085B082B55F8E7104BC0B21855104B1049800818556200002353520E490F4853520F490968095DFF24445442
:400CC0000D4843540D4909688B5270BDBA81FF1F3481FF1F980D00002481FF1FBE100000C781FF1FCA81FF1FAE81FF1FBE81FF1FB781FF1F4481FF1FC481FF1F2881FF1FF9
:400D00001E4BF7B51A681E4E43001E4C9A5A9F5B195BBD1AADB20191891A6940090429D5002D27D0019D1F53511B89B28DB22CB2002C01DA4D42ADB21349EDB20F5C7908AE
:400D40008D4217DA114C215C8D4206DD104D00260131FF082E54C9190BE08D420AD00C4D2F5C092F02D801372F5403E000272F54013921540249CA52F7BDC0462C81FF1F9A
:400D8000AE81FF1FBE81FF1FC781FF1FCA81FF1FB481FF1F70B5264B051C1B681C5CFFF7AFFF244B595D244B48005A5DC0B2234B824204D9185D904205D91A5503E01E5D0B
:400DC000864200D9185548080918C8B29208011C904200D2111C1A4AC8B2165D864200D2115518490968085D17490968095D4118013989B28D421AD11449185D0D68285567
:400E00001348155D0668355500680E680019355D06786D08AE4200D3057009680D48095D006889080155FF2119550023135570BD4481FF1FCA81FF1FC781FF1FB781FF1F70
:400E4000C481FF1F3C81FF1F4081FF1F3881FF1F5081FF1F4C81FF1FF7B50022224B1B7893423FD9214C2248267800230768B446191CDDB265450BD2FD5C954206D11D4D2C
:400E8000EE5C351C8E4200D20D1CE9B20133F0E7194B1B68995424780068019400900023019CD8B2A0421AD2009CE05C904214D1124CE05C0F4D5D192F78B94206D901266E
:400EC0007F003743B0402F7080B2F3E7FF25071CAF4301D0E55400E0E0540133E0E70132D2B2BBE7F7BDC0462081FF1F2281FF1F4481FF1FBA81FF1F4881FF1FC781FF1FF0
:400F000038B5FFF742FD0024194B1A781D1CA2420AD9184B01221978D923201C93400134FFF75EFEE4B2EFE70023134A12789A420BD91249124A09681248C95C1268C908A4
:400F4000415CD1540133DBB2EFE7FFF71BFD00242B78A34208D90A4B201C1B68195D0134FFF780FEE4B2F3E7FFF776FF38BDC0462181FF1F2681FF1F2281FF1F3481FF1F5B
:400F80003081FF1F9E100000002902D0B0FBF1F0704708B14FF0FF3000F008B80029F8D00246B0FBF1F000FB11217047704700BF70B50E4B0E4D0024ED1AAD101E46AC426D
:400FC00004D056F8242090470134F8E700F07AF8084D094B0024ED1AAD101E46AC4204D056F8242090470134F8E770BDD0100000D0100000D8100000D010000002440346C6
:40100000934202D003F8011BFAE77047000000001C5100401C5100401C510040FC510040CB5A00409B5A0040401004100110005100401000305100404000C05100401000B4
:4010400000000140001000140140000800400140000A004C01400002005001402000000001010140100400000E5000400C5000400A500040065200400E52004016520040EC
:401080001E520040265200402E520040365200407E5200400001020000010201010101010101010102020202020303030303030404040404040505050505050606060202B9
:4010C00002000000F8B500BFF8BC08BC9E4670474D0000002D010000F8B500BFF8BC08BC9E46704729000000F81000000881FF1F60000000680000000000000007C8C8C876
:40110000030303010101011414146464640A0A0A03030300F2290500A081FF1F8A81FF1F9081FF1F0D81FF1F1A81FF1F981000009B100000941000001081FF1F1D81FF1F95
:401140001781FF1F0000E02EC05D00001800000000366E010000000000000000000000000000000000000000000000000000000000000000000000000000000000000000D1
:40118000000000000000000000000000000000000000000000000000000000000000000000000000000000000000000000000000000000000000000000000000000000002F
:4011C00000000000000000000000000000000000000000000000000000000000000000000000000000000000000000000000000000000000000000000000000000000000EF
:4012000000000000000000000000000000000000000000000000000000000000000000000000000000000000000000000000000000000000000000000000000000000000AE
:40124000000000000000000000000000000000000000000000000000000000000000000000000000000000000000000000000000000000000000000000000000000000006E
:020000040003F7
:0200000480007A
:40000000015200400864004001030140010701401B080140120901404F0A0140340B01404F0C01402F0D0140024001400341014003430140024501400546014003470140D2
:40004000014801400349014003500140015101400E5409FF0CFF0DFF1CFF1DFF2CFF2DFF891FE601EE048401A401B401B820C065C504C650C702C819C9FFCAFFCBFFCC0224
:40008000CD20CF05D110D602D804DA04DB04DE08DF01E040E140E280E480E680032010201910482849405008532073407B40974099409D10A340AB20C004C404D20CDE01F8
:4000C0000016012402280702083A0A040B020C2E0D100E1015721601178819E21B101C011D921F642140230425F228202A082B012DF22E0630303101320C3302340135F017
:400100003602370C3F404002410549FF4AFF4BFF4C024D0C4EF85217580459045A045B045F01624863A168F06AF06CF06EF08A019A02AC01AE02B403BE10C006C105C50AB8
:40014000C9FFCAFFCBFFCC03CD0CCEF4D804DA04DF01E248E3A1E8F0EAF0ECF0EEF001820308051008040A020F08100A1602186419C21A081B491F20218822212804291491
:400180002B8131083260382039043A013B40400449404E044F88680A69046A047202928094409604974099049A01A380A588A620A708B240B640C04BC245C483CA0FCC0E7E
:4001C000CE0FD004D2380E03100214032C0134033E104061410246064720482458045A045F01610C62F0630C650C670C6840694C6A406B4C6C906D586F0C81298405860274
:4002000087608A028C078D7B90069209940F957897049A029B039C089E019F7BA152A209A403A604AE04B004B107B203B360B408B518BE10BF15C034C102C506C702C81179
:40024000D608D804D904DA04DB0CDF01E10CE2F0E30CE50CE70CE840E94CEA40EB4CEC90ED58EF0C004001080308048009480A840D080F8011421220134016011880190C2F
:400280001A801B101D2021152B4030203108324038083A41411545A048204F2050045541560157C05A40624079408104C087C23FC48DCA01CC0ECE0BD037D220D608D80833
:4002C000DE083180CC108180A580E680A320AB20EE201108C4089A20B220B504EC01EE023A209A20CE08A3207B20A320DE4000010C010E0100030000000000000000100003
:400300000000540000000000000202000000000000000000000000000000000000000000000000000000000000000000000000000000000000000000000000000000000065
:40034000000000000000000000000000000000000000000000000000000000000000000000000000000000000000000000000000000000000000000000000000000000007D
:40038000000000000000000000000000000000000000000000000000000000000000000000000000000000000000000000000000000000000000000000000000000000003D
:4003C00000000000000000000000000000000000000000000000000000000000000000000000000000000000000000000000000000000000000000000000000000000000FD
:4004000000000000000000000000000000000000000000000000000000000000000000000000000000000000000000000000000000000000000000000000000000000000BC
:0200000490006A
:0400000000004005B7
:0200000490105A
:04000000BC90ACAF55
:0200000490303A
:02000000404579
:0200000490402A
:4000000000000000000000000000000000000000000000000000000000000000000000000000000000000000000000000000000000000000000000000000000000000000C0
:400040000000000000000000000000000000000000000000000000000000000000000000000000000000000000000000000000000000000000000000000000000000000080
:400080000000000000000000000000000000000000000000000000000000000000000000000000000000000000000000000000000000000000000000000000000000000040
:4000C0000000000000000000000000000000000000000000000000000000000000000000000000000000000000000000000000000000000000000000000000000000000000
:0200000490501A
:0C00000000012E16106900012E1D50AEEC
:00000001FF